{
  "abi": [
    {
      "type": "constructor",
      "inputs": [],
      "stateMutability": "nonpayable"
    },
    {
      "type": "function",
      "name": "getThreadData",
      "inputs": [
        {
          "name": "threadId",
          "type": "uint256",
          "internalType": "uint256"
        }
      ],
      "outputs": [
        {
          "name": "",
          "type": "string",
          "internalType": "string"
        }
      ],
      "stateMutability": "view"
    },
    {
      "type": "function",
      "name": "owner",
      "inputs": [],
      "outputs": [
        {
          "name": "",
          "type": "address",
          "internalType": "address"
        }
      ],
      "stateMutability": "view"
    },
    {
      "type": "function",
      "name": "pushThreadData",
      "inputs": [
        {
          "name": "threadId",
          "type": "uint256",
          "internalType": "uint256"
        },
        {
          "name": "data",
          "type": "string",
          "internalType": "string"
        }
      ],
      "outputs": [],
      "stateMutability": "nonpayable"
    },
    {
      "type": "function",
      "name": "threadsData",
      "inputs": [
        {
          "name": "",
          "type": "uint256",
          "internalType": "uint256"
        }
      ],
      "outputs": [
        {
          "name": "",
          "type": "string",
          "internalType": "string"
        }
      ],
      "stateMutability": "view"
    },
    {
      "type": "function",
      "name": "transferOwnership",
      "inputs": [
        {
          "name": "newOwner",
          "type": "address",
          "internalType": "address"
        }
      ],
      "outputs": [],
      "stateMutability": "nonpayable"
    },
    {
      "type": "event",
      "name": "OwnershipTransferred",
      "inputs": [
        {
          "name": "user",
          "type": "address",
          "indexed": true,
          "internalType": "address"
        },
        {
          "name": "newOwner",
          "type": "address",
          "indexed": true,
          "internalType": "address"
        }
      ],
      "anonymous": false
    }
  ],
  "bytecode": {
    "object": "0x6080604052348015600f57600080fd5b50600080546001600160a01b031916339081178255604051909182917f8be0079c531659141344cd1fd0a4f28419497f9722a3daafe3b4186f6b6457e0908290a3506105d2806100606000396000f3fe608060405234801561001057600080fd5b50600436106100575760003560e01c80634b68c0821461005c5780638da5cb5b14610085578063c46de7e1146100b0578063cf14acd0146100c5578063f2fde38b146100d8575b600080fd5b61006f61006a366004610328565b6100eb565b60405161007c9190610341565b60405180910390f35b600054610098906001600160a01b031681565b6040516001600160a01b03909116815260200161007c565b6100c36100be36600461038f565b61018d565b005b61006f6100d3366004610328565b6101fa565b6100c36100e636600461040d565b610294565b60008181526001602052604090208054606091906101089061043d565b80601f01602080910402602001604051908101604052809291908181526020018280546101349061043d565b80156101815780601f1061015657610100808354040283529160200191610181565b820191906000526020600020905b81548152906001019060200180831161016457829003601f168201915b50505050509050919050565b6000546001600160a01b031633146101db5760405162461bcd60e51b815260206004820152600c60248201526b15539055551213d49256915160a21b60448201526064015b60405180910390fd5b60008381526001602052604090206101f48284836104dc565b50505050565b600160205260009081526040902080546102139061043d565b80601f016020809104026020016040519081016040528092919081815260200182805461023f9061043d565b801561028c5780601f106102615761010080835404028352916020019161028c565b820191906000526020600020905b81548152906001019060200180831161026f57829003601f168201915b505050505081565b6000546001600160a01b031633146102dd5760405162461bcd60e51b815260206004820152600c60248201526b15539055551213d49256915160a21b60448201526064016101d2565b600080546001600160a01b0319166001600160a01b0383169081178255604051909133917f8be0079c531659141344cd1fd0a4f28419497f9722a3daafe3b4186f6b6457e09190a350565b60006020828403121561033a57600080fd5b5035919050565b602081526000825180602084015260005b8181101561036f5760208186018101516040868401015201610352565b506000604082850101526040601f19601f83011684010191505092915050565b6000806000604084860312156103a457600080fd5b83359250602084013567ffffffffffffffff8111156103c257600080fd5b8401601f810186136103d357600080fd5b803567ffffffffffffffff8111156103ea57600080fd5b8660208284010111156103fc57600080fd5b939660209190910195509293505050565b60006020828403121561041f57600080fd5b81356001600160a01b038116811461043657600080fd5b9392505050565b600181811c9082168061045157607f821691505b60208210810361047157634e487b7160e01b600052602260045260246000fd5b50919050565b634e487b7160e01b600052604160045260246000fd5b601f8211156104d757806000526020600020601f840160051c810160208510156104b45750805b601f840160051c820191505b818110156104d457600081556001016104c0565b50505b505050565b67ffffffffffffffff8311156104f4576104f4610477565b61050883610502835461043d565b8361048d565b6000601f84116001811461053c57600085156105245750838201355b600019600387901b1c1916600186901b1783556104d4565b600083815260209020601f19861690835b8281101561056d578685013582556020948501946001909201910161054d565b508682101561058a5760001960f88860031b161c19848701351681555b505060018560011b018355505050505056fea2646970667358221220128709727f095896080eb1022e4a2ebdb8f2399219c3c2d67f255f265a14f7bb64736f6c634300081b0033",
    "linkReferences": {}
  },
  "methodIdentifiers": {
    "getThreadData(uint256)": "4b68c082",
    "owner()": "8da5cb5b",
    "pushThreadData(uint256,string)": "c46de7e1",
    "threadsData(uint256)": "cf14acd0",
    "transferOwnership(address)": "f2fde38b"
  },
  "id": 30
}